:100000000C949B000C94C3000C94C3000C94C3008C
:100010000C94C3000C94C3000C94C3000C94C30054
:100020000C94C3000C94C3000C9469030C94DB0380
:100030000C94C3000C94C3000C94C3000C94C30034
:100040000C94C3000C94C3000C94C3000C94C30024
:100050000C94C3000C94C3000C94C3000C941806B9
:100060000C94C3000C94C3000C94C3000C94C30004
:100070000C94C3000C94C3000C94C3000C94C300F4
:100080000C94C3000C94C3000C94C3000C94C300E4
:100090000C94C3000C94C3000C94C3000C94C300D4
:1000A0000C94C3000C94C3000C94C300080B000212
:1000B0000202010009040000010202000005240000
:1000C0001001052401010104240206052406000193
:1000D0000705810310004009040100020A00000026
:1000E00007050202400000070583024000000403E8
:1000F000090441726475696E6F204C4C4300417273
:100100006475696E6F204C656F6E6172646F00126A
:10011000010002000000404123368000010102037B
:100120000112010002EF020140412336800001016B
:1001300002030100310711241FBECFEFDAE0DEBF5A
:10014000CDBF11E0A0E0B1E0E6EAFEE002C005901C
:100150000D92A233B107D9F721E0A2E3B1E001C0CB
:100160001D92A23AB207E1F710E0CBE9D0E004C05B
:100170002197FE010E944607CA39D107C9F70E949C
:1001800062060C9451070C940000FC018091A101BF
:10019000811103C08FEF9FEF08959FB7F89482E01D
:1001A0008093E9002091F20030E01216130614F457
:1001B00021E030E02115310559F0289884E680933C
:1001C000A0018091F10080838091F200882319F0D2
:1001D0009FBFC90108958BE68093E800F9CF809115
:1001E000980181110DC082E08093940184E0809396
:1001F0009501109297011092960181E080939801E9
:1002000084E991E0089540913E0150913F01209191
:100210003C0130913D0142175307B4F49091E8003E
:100220009570E1F39091E80092FD19C08093F10080
:1002300080913E0190913F0101968F739927892B00
:1002400019F48EEF8093E80080913E0190913F0178
:10025000019690933F0180933E0181E0089580E0F4
:100260000895CF92DF92EF92FF920F931F93CF9357
:10027000DF931F92CDB7DEB7182F062FE42E862FFF
:10028000880F8E5F99830E94030183E00E9403011F
:10029000F12EC12E9981D92E8C2D8F19801798F4AB
:1002A000F601E7FE02C0849101C080810E94030133
:1002B000182F80E00E9403018123FFEFCF1ADF0A8D
:1002C0008111EACF01C081E00F90DF91CF911F91A2
:1002D0000F91FF90EF90DF90CF900895DF92EF9213
:1002E000FF920F931F93CF93DF93D82E8A017B0148
:1002F000E40EF51EEB01CE15DF0571F0D7FE03C04D
:10030000FE01849101C088810E9403012196811120
:10031000F2CF8FEF9FEF01C0C801DF91CF911F9106
:100320000F91FF90EF90DF9008950F931F93CF935D
:10033000DF931F92CDB7DEB782E0898342E450E0BD
:100340006CEA70E080E80E946E010E94EF00DC0120
:1003500012960D911C9113970115110569F0D801A2
:10036000ED91FC910280F381E02DBE016F5F7F4F24
:10037000C801099597FF07C089810F90DF91CF9140
:100380001F910F910895F80100851185E5CF615007
:1003900030F02091F100FC0120830196F8CF2898DD
:1003A00084E68093A0010895CF92DF92EF92FF92AE
:1003B0000F931F93CF93DF936C017A018B01C0E001
:1003C000D0E0CE15DF0589F0D8016D918D01D60101
:1003D000ED91FC910190F081E02DC6010995892BEA
:1003E00011F47E0102C02196ECCFC701DF91CF91BD
:1003F0001F910F91FF90EF90DF90CF900895CF93D2
:10040000DF931F92CDB7DEB76983DC01ED91FC91DC
:100410000280F381E02D41E050E0BE016F5F7F4F2D
:1004200009950F90DF91CF91089583E08093E900C3
:100430008091F200882319F08AE38093E800089500
:10044000CF93DF931F92CDB7DEB7FC0184859585EE
:1004500097FD05C02FEF3FEF358724870BC0CE01F6
:1004600001960E94C500019719F4898190E002C0AD
:100470008FEF9FEF0F90DF91CF9108950F931F9310
:10048000CF93DF931F92CDB7DEB78C01FC0184853B
:10049000958597FF0EC0CE0101960E94C500019779
:1004A00019F4298130E002C02FEF3FEFF8013587C2
:1004B0002487F801848595850F90DF91CF911F9156
:1004C0000F910895FC018485958597FD0BC09FB71A
:1004D000F89482E08093E9008091F2009FBF90E061
:1004E000019608959FB7F89482E08093E900809187
:1004F000F2009FBF90E008953FB7F89480913701D4
:1005000090913801A0913901B0913A0126B5A89B8C
:1005100005C02F3F19F00196A11DB11D3FBFBA2F95
:10052000A92F982F8827820F911DA11DB11DBC01F5
:10053000CD0142E0660F771F881F991F4A95D1F7BA
:1005400008958F929F92AF92BF92CF92DF92EF92D7
:10055000FF926B017C010E947C024B015C01C11483
:10056000D104E104F104F1F00E947C02DC01CB0132
:1005700088199909AA09BB09883E9340A105B105CC
:1005800070F321E0C21AD108E108F10888EE880E64
:1005900083E0981EA11CB11CC114D104E104F10434
:1005A00019F7DDCFFF90EF90DF90CF90BF90AF9025
:1005B0009F908F9008958F929F92AF92BF92CF920B
:1005C000DF92EF92FF920F931F93CF93DF935C0123
:1005D0006B018A0180910B01882309F45EC0809130
:1005E000A101882309F459C08091420180FF05C010
:1005F0008091E00082608093E000E8018AEFF82EAD
:1006000093E0E92E2FE3822E3AE3932E209709F40C
:100610003DC08FB7F894E092E9009091E80095FF13
:1006200006C09091F200282D291B922F01C090E066
:100630008FBF91110AC0FA94FF2079F161E070E058
:1006400080E090E00E94A102E1CF292F30E0C217A4
:10065000D3070CF49C2F8FB7F894E092E900209117
:10066000E80025FF11C0292F30E0C21BD30BF60193
:10067000915020F041914093F100FACFC20ED31E69
:100680009091E80095FF13C08FBFC0CF5D9884E6BE
:10069000809340011016110644F081E090E0F501CE
:1006A0009383828380E090E005C0C80103C09092EC
:1006B000E800EACFDF91CF911F910F91FF90EF906B
:1006C000DF90CF90BF90AF909F908F9008950E9441
:1006D0004C071F920F920FB60F9211248F939F9386
:1006E0008091E1009091E100937F9093E10083FF7E
:1006F0000FC01092E90091E09093EB001092EC0093
:1007000092E39093ED001092A10198E09093F00095
:1007100082FF20C093E09093E9009091F20099232A
:1007200019F09AE39093E80090914001992339F0F1
:1007300090914001915090934001992389F19091BB
:10074000A001992339F09091A00191509093A001BC
:10075000992341F184FF10C08091E2008E7E816078
:100760008093E2008091E1008F7E8093E100809190
:1007700042018E7E806111C080FF16C08091E20030
:100780008E7E80618093E2008091E1008E7E809376
:10079000E100809142018E7E81608093420104C01D
:1007A0005D9ACDCF289AD6CF9F918F910F900FBE93
:1007B0000F901F9018951F920F920FB60F92112451
:1007C000CF92DF92EF92FF920F931F932F933F935D
:1007D0004F935F936F937F938F939F93AF93BF9349
:1007E000EF93FF93CF93DF93CDB7DEB76C97DEBF68
:1007F000CDBF1092E9008091E80083FFFAC168E064
:10080000CE0145960E94C70182EF8093E8008D8952
:1008100087FF05C09091E80090FFFCCF03C09EEFDA
:100820009093E800982F907609F0C6C09E892F8992
:10083000188D91110CC0803829F480914301809368
:10084000F10002C01092F1001092F10047C1422F56
:1008500050E0512B913051F4811140C1413051058C
:1008600009F03CC1809143018D7F0BC0933061F44E
:10087000811134C14130510509F030C180914301EB
:100880008260809343012AC1953041F48091E80051
:1008900080FFFCCF20682093E30020C1963009F050
:1008A0005FC0EB8CFC8C1092E90010923F0110921B
:1008B0003E01123091F510923D0110923C010E94D0
:1008C000950199E0BE016F5F7F4FDB01E92F1D921B
:1008D000EA95E9F799831A8391E09E8390EA9887D5
:1008E0009AEF998720913E0130913F01275F3F4F5A
:1008F0003C832B838D831092E90010923F0110926C
:100900003E01F0923D01E0923C0149E050E080E080
:100910000E946E010E949501E1C0F0923D01E092BB
:100920003C010E94EF00DC011296ED90FC901397C1
:10093000E114F10409F4C0C0D701ED91FC910480E9
:10094000F581E02DBE016B5E7F4FC70109950097D1
:1009500019F00CF0C3C0C6C0F701E084F184E8CF01
:10096000973009F4BFC0983021F481E08093F10002
:10097000B5C0993009F0B2C0837009F0B3C0EDE1A1
:10098000F1E081E021E036E39081992361F08093EA
:10099000E9002093EB0091919093EC003093ED00EF
:1009A0008F5F873089F78EE78093EA001092EA0024
:1009B0008F898093A10192C08B8D9C8D1092E9004C
:1009C00010923F0110923E0190933D0180933C01B3
:1009D000898D811156C08E899D89913A59F4813251
:1009E00009F080C047E050E064E071E080E00E94E0
:1009F0006E0174C0913209F075C0833289F4888D1C
:100A000090E0982F88272F89822BA0E0B0E0809378
:100A1000000190930101A0930201B09303015EC015
:100A2000803269F48091E80082FFFCCF67E084E0C7
:100A300091E00E94C7018BEF8093E80006C08232EC
:100A400009F04CC08F8980930B018091410188236C
:100A500019F0EEEFFAE002C0E0E0F8E08091040166
:100A600090910501A0910601B0910701803B94404F
:100A7000A105B10509F088C080910B0180FFA0C0DD
:100A800083C00E94EF00DC0112960D911C91139718
:100A90000115110539F1D801ED91FC910190F0811A
:100AA000E02DBE016B5E7F4FC8010995811116C014
:100AB000F80100851185ECCF1130C1F0133091F4AD
:100AC0008F89882309F455C08230E9F440E860E159
:100AD0008EEF90E00E943101882321F08EEF809309
:100AE000E80087C081E28093EB0083C08B8D9C8DF2
:100AF000089711F410933B0180913B01811136C09E
:100B00006FE071E038C0813029F440E86BE082EF9B
:100B100090E0E0CF833031F70E94EF00DC011296C5
:100B2000ED90FC9013978E010F5F1F4F6801E11449
:100B3000F10479F0D701ED91FC910680F781E02D69
:100B4000B801C7010995080F111DF701E084F18470
:100B5000EECFD8011C92F60101900020E9F7319701
:100B6000BF016C197D0940E0C601B4CF61E271E0BC
:100B700002C06EEE70E06115710509F4B3CFFB01A0
:100B8000449150E080E833CF0FB6F894A895809157
:100B90006000886180936000109260000FBEA8958D
:100BA000EE3F2AE0F20739F08091FE0A9091FF0AA9
:100BB0009183808393CF1092FF0A1092FE0A8ECF0A
:100BC000EE3F8AE0F80731F0808191819093FF0A2F
:100BD0008093FE0A87E797E7918380839BE088E113
:100BE0000FB6F894A895809360000FBE90936000B4
:100BF00075CF6C960FB6F894DEBF0FBECDBFDF91F8
:100C0000CF91FF91EF91BF91AF919F918F917F9184
:100C10006F915F914F913F912F911F910F91FF9095
:100C2000EF90DF90CF900F900FBE0F901F90189510
:100C30001F920F920FB60F9211242F933F938F9311
:100C40009F93AF93BF938091330190913401A09112
:100C50003501B09136013091320123E0230F2D3759
:100C600020F40196A11DB11D05C026E8230F0296B0
:100C7000A11DB11D20933201809333019093340163
:100C8000A0933501B09336018091370190913801DE
:100C9000A0913901B0913A010196A11DB11D809337
:100CA000370190933801A0933901B0933A01BF9175
:100CB000AF919F918F913F912F910F900FBE0F9009
:100CC0001F901895789484B5826084BD84B5816046
:100CD00084BD85B5826085BD85B5816085BD809107
:100CE0006E00816080936E0010928100809181007F
:100CF0008260809381008091810081608093810077
:100D0000809180008160809380008091910082605A
:100D100080939100809191008160809391008091F7
:100D200090008160809390008091C10084608093E6
:100D3000C1008091C10082608093C1008091C10098
:100D400081608093C1008091C30081608093C30063
:100D50008091C00082608093C0008091C200816059
:100D60008093C20080917A00846080937A008091A1
:100D70007A00826080937A0080917A00816080930B
:100D80007A0080917A00806880937A001092A101A5
:100D900010924301109242018091D70081608093AC
:100DA000D70080EA8093D80089B5806189BD89B574
:100DB000826089BD09B400FEFDCF61E070E080E093
:100DC00090E00E94A1028091D8008F7C8061809386
:100DD000D8008091E000807F8093E0008091E10066
:100DE0008E7E8093E1008DE08093E200559A209AF8
:100DF000EEEFFFE7859194918B3F9C4D19F481E0D4
:100E0000809341018FEF9FEF9093510180935001A8
:100E1000C0E0D0E0E0914401F09145010280F3810F
:100E2000E02D4BE050E063E271E084E491E009954D
:100E3000E0914401F09145010280F381E02D42E010
:100E400050E06FE271E084E491E0099568EE73E0B0
:100E500080E090E00E94A1022097E1F20E94000051
:100E6000D9CFE4E4F1E01382128288EE93E0A0E0AF
:100E7000B0E084839583A683B78380E191E091837A
:100E800080838FEF9FEF958784870895EE0FFF1F74
:100E90000590F491E02D099481E090E0F8940C9491
:100EA0005107F894FFCFFFFFFFFF00E100000000B3
:100EB000000000000000FF01DB02620220023E028F
:100EC000150200C1808100000048656A204A6573F0
:100ED00073696361000D0A00FFFFFFFFFFFFFFFF63
:100EE000FFFFFFFFFFFFFFFFFFFFFFFFFFFFFFFF12
:100EF000FFFFFFFFFFFFFFFFFFFFFFFFFFFFFFFF02
:100F00000F920FB60F9211242F933F938F939F93BD
:100F1000AF93BF9380912C0190912D01A0912E0150
:100F2000B0912F0130912B0123E0230F2D3720F4B6
:100F30000196A11DB11D05C026E8230F0296A11D33
:100F4000B11D20932B0180932C0190932D01A09330
:100F50002E01B0932F018091300190913101A09129
:100F60003201B09133010196A11DB11D8093300172
:100F700090933101A0933201B0933301BF91AF91AF
:100F80009F918F913F912F910F900FBE0F901F90C7
:100F900018951F920F920FB60F9211242F933F9323
:100FA0004F935F936F937F938F939F93AF93BF9371
:100FB000EF93FF9380912A0187FF05C0109285006F
:100FC000109284001BC020912A01022E000C330BCA
:100FD0008091BF0190E02817390784F480912A019D
:100FE000082E000C990BFC01EE0FFF1F8E0F9F1FA8
:100FF000FC01E556FE4F808186FD15C080912A01D7
:101000008F5F80932A0120912A01022E000C330B5E
:101010008091BF0190E028173907C4F480912A011C
:101020008C3064F113C080912A01082E000C990BBA
:10103000FC01EE0FFF1F8E0F9F1FFC01E556FE4FB8
:10104000808160E08F730E94B303D8CF80918400C9
:1010500090918500049680349C4918F480E49CE9C2
:1010600005C080918400909185000496909389003A
:10107000809388008FEF80932A013BC020918400E9
:101080003091850080912A01082E000C990BFC01FB
:10109000EE0FFF1F8E0F9F1FFC01E556FE4F818153
:1010A0009281820F931F9093890080938800809192
:1010B0002A01082E000C990BFC01EE0FFF1F8E0F6A
:1010C0009F1FFC01E556FE4F808186FF12C0809174
:1010D0002A01082E000C990BFC01EE0FFF1F8E0F4A
:1010E0009F1FFC01E556FE4F808161E08F730E94D7
:1010F000B303FF91EF91BF91AF919F918F917F913A
:101100006F915F914F913F912F910F900FBE0F9074
:101110001F90189510924E0110924D0188EE93E0A9
:10112000A0E0B0E080934F0190935001A093510153
:10113000B09352018DE191E090934C0180934B016B
:101140008FEF9FEF90935801809357018091BF01DB
:101150008C30A0F491E0980F9093BF018093C00170
:1011600090E0FC01EE0FFF1F8E0F9F1FFC01E55664
:10117000FE4F88EB9BE09283818308958FEF8093ED
:10118000C0010895789484B5826084BD84B581607F
:1011900084BD85B5826085BD85B5816085BD809142
:1011A0006E00816080936E001092810080918100BA
:1011B00082608093810080918100816080938100B2
:1011C0008091800081608093800080919100826096
:1011D0008093910080919100816080939100809133
:1011E00090008160809390008091C1008460809322
:1011F000C1008091C10082608093C1008091C100D4
:1012000081608093C1008091C30081608093C3009E
:101210008091C00082608093C0008091C200816094
:101220008093C20080917A00846080937A008091DC
:101230007A00826080937A0080917A008160809346
:101240007A0080917A00806880937A0010924A0137
:1012500010923C0110923B018091D70081608093F5
:10126000D70080EA8093D80089B5806189BD89B5AF
:10127000826089BD09B400FEFDCF61E070E080E0CE
:1012800090E00E9408048091D8008F7C8061809358
:10129000D8008091E000807F8093E0008091E100A1
:1012A0008E7E8093E1008DE08093E200559A209A33
:1012B000EEEFFFE7859194918B3F9C4D19F481E00F
:1012C00080933A018FEF9FEF9093580180935701DD
:1012D000E1EAF1E02491E2E8F1E084918823C1F0B1
:1012E00090E0880F991FFC01E15AFE4FC591D491FF
:1012F000FC01EF5AFE4FA591B4919FB7F8948881F5
:10130000E22FE0958E2388838C91E823EC939FBF96
:10131000C3EAD1E004E811E067EA762E70E0E72E38
:1013200070E0F72EE3E0CE2ED12CAA24A394B12CAA
:10133000A2E08A2E912C3BE4432E4CE0542E52E046
:10134000652E80910C0190910D018230910509F478
:1013500080C08330910509F48FC0019709F0A2C0C5
:101360000E948F03892B09F49DC08091C0018C30AD
:1013700008F066C0FE014491F8018491882399F039
:1013800090E0880F991FFC01E15AFE4FA591B4919E
:10139000FC01EF5AFE4F259134918FB7F8949C9140
:1013A000492B4C938FBF8091C001282F30E0A901B9
:1013B000440F551F240F351FF901E556FE4F90814C
:1013C000907C996090837092C1014092C201652D1A
:1013D0000E94590AFCE08F9FB001112440E050E0C8
:1013E0009A01260F371FF901EE0FFF1FE20FF31FBF
:1013F000E556FE4F908196FD15C04F5F5F4F4C3014
:10140000510571F781110EC0109280006092810029
:101410001092850010928400B19A80916F008260D2
:1014200080936F008091C00190E09C01220F331FD8
:10143000820F931FFC01E556FE4F808180648083FC
:1014400084EB90E00E94170190920D0180920C01B4
:1014500029C00E948F03892B29F580E090E00E942B
:10146000170168E572E080E090E00E940804D092E5
:101470000D01C0920C0116C00E948F03892B91F4BC
:101480008091C00190E09C01220F331F820F931FB7
:10149000FC01E556FE4F80818F7B8083B0920D0169
:1014A000A0920C01E114F10409F44BCF0E9400005A
:1014B00042CF991B79E004C0991F961708F0961B3C
:1014C000881F7A95C9F780950895EE0FFF1F059044
:1014D000F491E02D099481E090E0F8940C94D30A03
:1014E000052E97FB1EF400940E94870A57FD07D033
:1014F0000E94A20A07FC03D04EF40C94870A509570
:101500004095309521953F4F4F4F5F4F08959095EF
:101510008095709561957F4F8F4F9F4F08950E94E2
:10152000C40AA59F900DB49F900DA49F800D911D9E
:1015300011240895B7FF0C948F0A0E948F0A821B12
:10154000930B0895A1E21A2EAA1BBB1BFD010DC02F
:10155000AA1FBB1FEE1FFF1FA217B307E407F50763
:1015600020F0A21BB30BE40BF50B661F771F881F3F
:10157000991F1A9469F760957095809590959B01D5
:10158000AC01BD01CF010895A29FB001B39FC0017E
:10159000A39F700D811D1124911DB29F700D811D9F
:1015A0001124911D0895F894FFCFFFFFFFFF00E184
:1015B00000000000000001000100000000C1808167
:1015C00000000000000000D50242043803F60214B7
:1015D00003EB0200FFFFFFFFFFFFFFFFFFFFFFFF27
:1015E000FFFFFFFFFFFFFFFFFFFFFFFFFFFFFFFF0B
:1015F000FFFFFFFFFFFFFFFFFFFFFFFFFFFFFFFFFB
:10160000AE01475E5F4F6F89788DCE0101960E94D3
:10161000130B2F813885F801E20FF31F10822E96ED
:10162000E4E00C941E0EACE0B0E0E9E1FBE00C94C9
:10163000F40D7C016B018A01FC0117821682838103
:1016400081FFBDC1CE0101964C01F7019381F601E6
:1016500093FD859193FF81916F01882309F4ABC1BC
:10166000853239F493FD859193FF81916F01853225
:1016700029F4B70190E00E94FB0CE7CF512C312CEC
:1016800020E02032A0F48B3269F030F4803259F03F
:10169000833269F420612CC08D3239F0803339F403
:1016A000216026C02260246023C0286021C027FD5D
:1016B00027C030ED380F3A3078F426FF06C0FAE044
:1016C0005F9E300D1124532E13C08AE0389E300DDA
:1016D0001124332E20620CC08E3221F426FD6BC102
:1016E000206406C08C3611F4206802C0883641F4AC
:1016F000F60193FD859193FF81916F018111C1CF17
:10170000982F9F7D9554933028F40C5F1F4FFFE373
:10171000F9830DC0833631F0833771F0833509F0DA
:101720005BC022C0F801808189830E5F1F4F442473
:101730004394512C540115C03801F2E06F0E711C16
:10174000F801A080B18026FF03C0652D70E002C0C3
:101750006FEF7FEFC5012C870E94F00C2C018301F5
:101760002C852F77222E17C03801F2E06F0E711CE6
:10177000F801A080B18026FF03C0652D70E002C093
:101780006FEF7FEFC5012C870E94E50C2C012C85A3
:101790002068222E830123FC1BC0832D90E0481675
:1017A0005906B0F4B70180E290E00E94FB0C3A9435
:1017B000F4CFF50127FC859127FE81915F01B701E8
:1017C00090E00E94FB0C31103A94F1E04F1A51085E
:1017D0004114510471F7E5C0843611F0893639F5AA
:1017E000F80127FF07C060817181828193810C5FBE
:1017F0001F4F08C060817181072E000C880B990B68
:101800000E5F1F4F2F76722E97FF09C0909580951F
:10181000709561957F4F8F4F9F4F2068722E2AE001
:1018200030E0A4010E94330DA82EA81844C08537CB
:1018300029F42F7EB22E2AE030E025C0F22FF97F66
:10184000BF2E8F36C1F018F4883579F0B4C08037D8
:1018500019F0883721F0AFC02F2F2061B22EB4FECF
:101860000DC08B2D8460B82E09C024FF0AC09F2FA5
:101870009660B92E06C028E030E005C020E130E0D7
:1018800002C020E132E0F801B7FE07C0608171813B
:10189000828193810C5F1F4F06C06081718180E05F
:1018A00090E00E5F1F4FA4010E94330DA82EA818D0
:1018B000FB2DFF777F2E76FE0BC0372D3E7FA514C4
:1018C00050F474FE0AC072FC08C0372D3E7E05C07D
:1018D000BA2C372D03C0BA2C01C0B52C34FF0DC073
:1018E000FE01EA0DF11D8081803311F4397E09C0BB
:1018F00032FF06C0B394B39404C0832F867809F0F6
:10190000B39433FD13C030FF06C05A2CB31418F43F
:10191000530C5B18B32CB31468F4B70180E290E069
:101920003C870E94FB0CB3943C85F5CFB31410F4B4
:101930003B1801C0312C34FF12C0B70180E390E0A6
:101940003C870E94FB0C3C8532FF17C031FD03C071
:1019500088E790E002C088E590E0B7010CC0832FD3
:10196000867859F031FF02C08BE201C080E237FD7A
:101970008DE2B70190E00E94FB0CA51438F4B7018A
:1019800080E390E00E94FB0C5A94F7CFAA94F401F4
:10199000EA0DF11D8081B70190E00E94FB0CA110BF
:1019A000F5CF332009F451CEB70180E290E00E94D8
:1019B000FB0C3A94F6CFF7018681978102C08FEF36
:1019C0009FEF2C96E2E10C94100EFC010590615003
:1019D00070400110D8F7809590958E0F9F1F089545
:1019E000FC016150704001900110D8F780959095EE
:1019F0008E0F9F1F08950F931F93CF93DF93FB01CB
:101A0000238121FD03C08FEF9FEF28C022FF16C066
:101A100046815781248135814217530744F4A081C0
:101A2000B1819D012F5F3F4F318320838C932681AD
:101A300037812F5F3F4F3783268310C0EB01092F7B
:101A4000182F0084F185E02D0995892BE1F68E8110
:101A50009F8101969F838E83812F902FDF91CF915D
:101A60001F910F910895FA01AA27283051F12031D2
:101A700081F1E8946F936E7F6E5F7F4F8F4F9F4F22
:101A8000AF4FB1E03ED0B4E03CD0670F781F891F64
:101A90009A1FA11D680F791F8A1F911DA11D6A0F32
:101AA000711D811D911DA11D20D009F468943F91E5
:101AB0002AE0269F11243019305D3193DEF6CF01E4
:101AC0000895462F4770405D4193B3E00FD0C9F7AA
:101AD000F6CF462F4F70405D4A3318F0495D31FD17
:101AE0004052419302D0A9F7EACFB4E0A69597956A
:101AF000879577956795BA95C9F700976105710540
:101B000008959B01AC010A2E069457954795379589
:101B10002795BA95C9F7620F731F841F951FA01DE3
:101B20000895052E97FB1EF400940E94A80D57FD02
:101B300007D00E94C30D07FC03D04EF40C94A80DEF
:101B400050954095309521953F4F4F4F5F4F0895E9
:101B500090958095709561957F4F8F4F9F4F089519
:101B60000E94E50DA59F900DB49F900DA49F800D40
:101B7000911D11240895B7FF0C94B00D0E94B00D73
:101B8000821B930B0895A1E21A2EAA1BBB1BFD0119
:101B90000DC0AA1FBB1FEE1FFF1FA217B307E4074C
:101BA000F50720F0A21BB30BE40BF50B661F771FA4
:101BB000881F991F1A9469F7609570958095909584
:101BC0009B01AC01BD01CF010895A29FB001B39F5D
:101BD000C001A39F700D811D1124911DB29F700D36
:101BE000811D1124911D08952F923F924F925F9273
:101BF0006F927F928F929F92AF92BF92CF92DF921D
:101C0000EF92FF920F931F93CF93DF93CDB7DEB781
:101C1000CA1BDB0B0FB6F894DEBF0FBECDBF099415
:101C20002A88398848885F846E847D848C849B846C
:101C3000AA84B984C884DF80EE80FD800C811B817A
:101C4000AA81B981CE0FD11D0FB6F894DEBF0FBEA9
:101C5000CDBFED010895F894FFCFFFFFFFFF00E136
:101C600000000000000001000100000000C18081B0
:101C700000000000000000D50242043803F6021400
:101C800003EB0225756C0A00FFFFFFFFFFFFFFFF5C
:101C9000FFFFFFFFFFFFFFFFFFFFFFFFFFFFFFFF54
:101CA000FFFFFFFFFFFFFFFFFFFFFFFFFFFFFFFF44
:101CB000FFFFFFFFFFFFFFFFFFFFFFFFFFFFFFFF34
:101CC000FFFFFFFFFFFFFFFFFFFFFFFFFFFFFFFF24
:1070000055C000006EC000006CC000006AC00000E7
:1070100068C0000066C0000064C0000062C00000DC
:1070200060C000005EC00000F2C400005AC0000052
:1070300058C0000056C0000054C0000052C00000FC
:1070400050C0000078C000004CC000004AC00000E2
:1070500048C0000046C0000044C0000042C000001C
:1070600040C000003EC000003CC000003AC000002C
:1070700038C0000036C0000034C0000032C000003C
:1070800030C000002EC000002CC000002AC000004C
:1070900028C0000026C0000024C0000022C000005C
:1070A00020C000001EC000001CC0000011241FBE34
:1070B000CFEFDAE0DEBFCDBF11E0A0E0B1E0E2E368
:1070C000FFE702C005900D92A83AB107D9F711E089
:1070D000A8EAB1E001C01D92AE3BB107E1F78FD342
:1070E00026C78ECFF89410926F00109281001092F4
:1070F00085001092840081E085BF15BE47985D9A97
:10710000289A0C94000008952091B2013091B301A7
:107110002F5F3F4F3093B3012093B201932F37FF7E
:1071200003C08EEF831B982F990F921710F4479886
:107130000895479A08951F920F920FB60F92112447
:107140002F938F939F93EF93FF931092850010924C
:1071500084008091A8019091A901009741F00197C6
:107160009093A9018093A801892B09F45D9A8091DD
:10717000AA019091AB01009741F001979093AB0168
:107180008093AA01892B09F4289AE0E0F0E0859128
:1071900094918F5F9F4F49F08091AC019091AD0128
:1071A00001969093AD018093AC01FF91EF919F9177
:1071B0008F912F910F900FBE0F901F90189584E024
:1071C0008093E9000DC08091E8008B778093E80000
:1071D00003C08EB3882351F08091E80082FFF9CF7D
:1071E0008091E80085FFEFCF8091F1000895982FFE
:1071F00083E08093E9008091E80085FD0DC08091D7
:10720000E8008E778093E80003C08EB3882369F08E
:107210008091E80080FFF9CF9093F1005D9884E6BB
:1072200090E09093A9018093A80108954F925F92F6
:107230006F927F928F929F92AF92BF92CF92DF9286
:10724000EF92FF920F931F93CF93DF9384E080938D
:10725000E9008091E80082FF57C2289884E690E018
:107260009093AB018093AA01AADF182F853481F493
:107270008CE49DE19093AD018093AC0107B600FCD6
:10728000FDCFF999FECF81E180935700E89503C0C7
:10729000843519F494DF8DE00DC28C34E1F3803530
:1072A000D1F3843721F484E4A2DF80E003C2813685
:1072B00011F489E5FFC18134B1F481DF182F7FDF3C
:1072C00090E0880F991FAA2797FDA095BA2F312F1C
:1072D000330F20E0442737FD4095542F822B932B0A
:1072E000A42BB52BB8C1803711F483E5E3C18335F6
:1072F00049F4C0E0D1E089917ADF21E0C730D207BC
:10730000D1F7D9C1863521F481E371DF80E3D2C1A1
:10731000833731F487E86BDF85E969DF8EE1CAC125
:107320008536B9F4E0E0F0E093E085E09093570013
:10733000E89507B600FCFDCF80935700E89507B6A7
:1073400000FCFDCFE058FF4FA0E7E030FA0771F7EF
:10735000A2CF823739F4E1E0F0E089E08093570072
:107360008491A8C1863439F4E0E0F0E089E08093AC
:10737000570084919FC18E3439F4E3E0F0E089E056
:1073800080935700849196C1813539F4E2E0F0E0B2
:1073900089E08093570084918DC1823631F489E56C
:1073A00026DF80E024DF80E885C1823419F087364B
:1073B00009F0E5C01092AD011092AC0100DF082F7A
:1073C000FEDEF82EFCDE682E8554823008F071C196
:1073D000902F80E0CF2DD0E0C82BD92B10926F00DA
:1073E000173609F04BC081E180935700E895DD2402
:1073F000CC24C3943FC0E090AE01F090AF01009167
:10740000B0011091B101B6E46B16D9F4ED2DF0E0A6
:10741000EE29FF29E4918E2FEADEDD2081F082E063
:1074200090E0A0E0B0E0E80EF91E0A1F1B1FE092FA
:10743000AE01F092AF010093B0011093B101DC24D2
:1074400018C0D801C701B695A7959795879559D5C6
:10745000CEDE82E090E0A0E0B0E0E80EF91E0A1F68
:107460001B1FE092AE01F092AF010093B0011093A8
:10747000B1012197209709F0BECF7DC08090AE0169
:107480009090AF01A090B001B090B10196E4691660
:1074900009F05DC083E0F40180935700E89507B6DA
:1074A00000FCFDCF54C0F6E46F1661F5772031F192
:1074B000E090AE01F090AF010091B0011091B101E8
:1074C0007EDED82ECC24852D90E08C299D29F701D5
:1074D0000C0140925700E895112482E090E0A0E072
:1074E000B0E0E80EF91E0A1F1B1FE092AE01F092F9
:1074F000AF010093B0011093B10102C060DE582EBD
:10750000742423C0E090AE01F090AF010091B0016F
:107510001091B10116950795F794E79450DE682F06
:10752000C701F7D48091AE019091AF01A091B00155
:10753000B091B1010296A11DB11D8093AE0190934F
:10754000AF01A093B001B093B101219704C05524BD
:10755000772444244394209709F0A5CF96E4691634
:1075600041F485E0F40180935700E89507B600FCEC
:10757000FDCF8DE03CDE82E080936F009CC08334C1
:1075800071F40091AE011091AF0119DE90E021E09D
:10759000F8010C0120935700E89511247CCE833626
:1075A00019F5E090AE01F090AF010091B00110919B
:1075B000B10105DEF701E16090E021E00C012093CC
:1075C0005700E895112482E090E0A0E0B0E0E80EDA
:1075D000F91E0A1F1B1FE092AE01F092AF0100934B
:1075E000B0011093B10157CE8D3661F4E091AE0138
:1075F000F091AF0185E080935700E89507B600FC55
:10760000FDCF49CE823551F4E091AE01F091AF014A
:1076100005911491812FEBDD802F4CC0843421F52E
:10762000E090AE01F090AF010091B0011091B10176
:1076300016950795F794E794C2DD682FC70169D4C2
:107640008091AE019091AF01A091B001B091B101D4
:107650000296A11DB11D8093AE019093AF01A0933E
:10766000B001B093B10117CE843609F5E090AE01B8
:10767000F090AF010091B0011091B101D801C701A4
:10768000B695A795979587953CD4B1DD82E090E0BB
:10769000A0E0B0E0E80EF91E0A1F1B1FE092AE0149
:1076A000F092AF010093B0011093B10104C08B318F
:1076B00011F08FE39CDD83E08093E9009091E80076
:1076C0008091E8008E778093E80095FF04C010C099
:1076D0008EB38823C9F08091E80080FFF9CF8091B4
:1076E000E8008E778093E80003C08EB3882361F0B2
:1076F0008091E80080FFF9CF84E08093E9008091D9
:10770000E8008B778093E800DF91CF911F910F9174
:10771000FF90EF90DF90CF90BF90AF909F908F90B1
:107720007F906F905F904F9008959091B601892F50
:107730008F77813249F58091B7018032A1F0813293
:1077400019F5913A09F58091E800877F8093E80068
:107750008DE091E067E070E00BD28091E8008B77DC
:107760008093E8000895913279F48091E800877F52
:107770008093E8008DE091E067E070E05DD2809159
:10778000E8008E778093E800089582E061EC42E0A3
:10779000B5D083E061E842E1B1D084E060E842E145
:1077A000ADC084B7877F84BF88E10FB6F89480931B
:1077B0006000109260000FBE20E880E090E00FB6FD
:1077C000F89420936100809361000FBE81E085BF33
:1077D00092E095BF3F9A209A559AE1E6F0E0208327
:1077E000108247985D9A289A109289008AEF8093B8
:1077F000880090936F0083E080938100F0C04091F7
:10780000000850910108109201081092000894B7E6
:1078100014BE88E10FB6F894809360001092600067
:107820000FBE292F30E0F901E270F07091FD18C011
:1078300090FF05C0859194918F5F9F4F81F423FF46
:107840000FC08091090190910A014817590741F032
:10785000E0E0F0E0859194918F5F9F4F09F042DC6A
:10786000A0DF78941092AD011092AC010CC0DEDC68
:1078700036D38091AC019091AD0181549F4110F0BD
:107880001092140141DC80911401882381F78091CA
:10789000E00081608093E00025DC80E090E00895C6
:1078A000FA01923049F0933061F09130F9F485E1BA
:1078B00091E022E130E01EC087E291E02EE330E06B
:1078C00019C0882329F485E691E024E030E012C055
:1078D000813029F489E691E022E230E00BC0823069
:1078E00029F48DE891E028E130E004C080E090E0E8
:1078F00020E030E091838083C90108958093E900FE
:107900008091EB0081608093EB001092ED0060931A
:10791000EC004093ED008091EE00881F8827881FBF
:1079200008958091B60188238CF403C08EB3882318
:10793000B1F08091E80082FFF9CF8091E8008B7769
:107940008093E80008958EB3882349F08091E80081
:1079500080FFF9CF8091E8008E778093E80008954A
:10796000EF92FF920F931F9345D04CD008ED10E09B
:10797000F80180818F778083808180688083808117
:107980008F7D808319BC1EBA1092B40180EEE82E60
:10799000F12CF70180818B7F8083F80180818160E9
:1079A000808380E060E042E0A9DFE1EEF0E08081EA
:1079B0008E7F8083E2EEF0E0808181608083808131
:1079C00088608083F70180818E7F8083F8018081C9
:1079D000806180831F910F91FF90EF900895E7EDF4
:1079E000F0E08081816080838AE482BF81E08093BF
:1079F000B501B6CFE8EDF0E080818E7F80831092F4
:107A0000E20008951092DA001092E10008951F92AA
:107A10000F920FB60F9211242F933F934F935F93C2
:107A20006F937F938F939F93AF93BF93EF93FF9346
:107A30008091DA0080FF1BC08091D80080FF17C0C2
:107A40008091DA008E7F8093DA008091D90080FFE8
:107A50000BC080E189BD82E189BD09B400FEFDCF84
:107A600081E08EBB3BD203C019BC1EBA37D28091D5
:107A7000E10080FF17C08091E20080FF13C0809179
:107A8000E2008E7F8093E2008091E200806180932B
:107A9000E2008091D80080628093D80019BC85E014
:107AA0008EBB1CD28091E10084FF2CC08091E2004B
:107AB00084FF28C080E189BD82E189BD09B400FE50
:107AC000FDCF8091D8008F7D8093D8008091E10018
:107AD0008F7E8093E1008091E2008F7E8093E200B0
:107AE0008091E20081608093E2008091B40188235C
:107AF00031F48091E30087FD02C081E001C084E0A1
:107B00008EBBECD18091E10083FF21C08091E20027
:107B100083FF1DC08091E100877F8093E10082E0B8
:107B20008EBB1092B4018091E1008E7F8093E100C2
:107B30008091E2008E7F8093E2008091E20080617C
:107B40008093E20080E060E042E0D8DEC7D1FF91A0
:107B5000EF91BF91AF919F918F917F916F915F91C5
:107B60004F913F912F910F900FBE0F901F9018953E
:107B70009C014091BC015091BD014617570718F474
:107B8000F90190E044C06115710511F0AB01F8CF27
:107B90008091E8008E778093E80040E050E0F0CFDD
:107BA0008EB3882309F444C0853009F443C0809122
:107BB000E80083FF02C081E008958091E80082FD23
:107BC00031C08091E80080FF22C08091F300909145
:107BD000F200782F60E0292F30E0262B372B07C0EA
:107BE00081918093F100415050402F5F3F4F4115EC
:107BF000510519F02830310598F390E0283031050F
:107C000009F491E08091E8008E778093E8004115B7
:107C1000510531F6992321F605C08EB3882341F032
:107C2000853041F08091E80082FFF7CF80E0089531
:107C300082E0089583E008959C016115710529F49F
:107C40008091E8008B778093E800F90126C08EB31D
:107C5000882391F1853091F18091E80083FF02C083
:107C600081E008958091E80082FFF1CF06C0809105
:107C7000F10081936150704059F02091F3008091A0
:107C8000F200322F20E090E0822B932B892B79F7A2
:107C90008091E8008B778093E80061157105B9F653
:107CA00005C08EB3882341F0853041F08091E80013
:107CB00080FFF7CF80E0089582E0089583E0089583
:107CC0000F931F93DF93CF9300D0CDB7DEB7E6EBD2
:107CD000F1E08091F100819381E0EE3BF807C9F774
:107CE00024DD8091E80083FFE4C08091B60190918B
:107CF000B701953009F46DC0963040F4913081F1B0
:107D0000913070F0933009F0D4C02AC0983009F453
:107D1000A3C0993009F4B2C0963009F0CAC07CC043
:107D2000803809F4C6C0823809F0C3C08091BA0116
:107D300087708093E9008091EB001092E900209118
:107D4000E800277F2093E80090E025E0969587954E
:107D50002A95E1F781708093F1001092F10087C0BD
:107D6000882319F0823009F0A4C08F71823009F0A5
:107D7000A0C08091B801882331F52091BA01277005
:107D800009F497C02093E9008091EB0080FF1BC0AD
:107D9000933021F48091EB00806213C08091EB005E
:107DA00080618093EB0081E090E002C0880F991F12
:107DB0002A95E2F78093EA001092EA008091EB00A6
:107DC00088608093EB001092E9008091E800877F43
:107DD00051C0882309F06DC01091B8011F770FB70B
:107DE000F8948091E800877F8093E8009ADD809185
:107DF000E80080FFFCCF8091E3008078812B8093A6
:107E0000E30080688093E300112311F482E001C055
:107E100083E08EBB0FBF4DC08058823008F049C050
:107E20008091B8019091B9016091BA01AE014F5FA4
:107E30005F4F36DDBC01009709F43BC08091E8003C
:107E4000877F8093E80089819A8192DE8091E800A3
:107E50008B778093E8002DC0803859F58091E80039
:107E6000877F8093E8008091B4018093F100809136
:107E7000E8008E778093E80054DD1BC08823C9F4A6
:107E80009091B8019230A8F48091E800877F8093A8
:107E9000E8009093B40145DD8091B401882331F46A
:107EA0008091E30087FD02C081E001C084E08EBBC9
:107EB0006CDC8091E80083FF0AC08091EB00806257
:107EC0008093EB008091E800877F8093E8000F901B
:107ED0000F90CF91DF911F910F91089508951F93F7
:107EE0008EB3882361F01091E9001092E90080912F
:107EF000E80083FF01C0E4DE17701093E9001F91D2
:107F00000895F999FECF92BD81BDF89A992780B561
:107F10000895262FF999FECF1FBA92BD81BD20BDCD
:107F20000FB6F894FA9AF99A0FBE01960895F8944C
:107F3000FFCF4341544552494E4100777700080036
:107F400000000000000801120110010200000841B9
:107F500023360001000201000109023E0002010077
:107F60008032090400000102020100052400100112
:107F7000042402040524060001070582030800FF0B
:107F800009040100020A00000007050402100001B4
:107F90000705830210000104030904220341007253
:107FA000006400750069006E006F0020004C0065E1
:107FB000006F006E006100720064006F0000001826
:107FC00003410072006400750069006E006F0020BC
:107FD000004C004C004300000000FFFFFFFFFFFFCC
:107FE000FFFFFFFFFFFFFFFFFFFFFFFFFFFFFFFFA1
:107FF000FFFFFFFFFFFFFFFFFFFFFFFFFFFFFFFF91
:00000001FF
